:020000040800F2
:100000009861002035300008E1030008E303000890
:10001000E5030008E7030008E9030008000000000A
:10002000000000000000000000000000290200089D
:10003000EB030008000000006D020008212F0008FB
:100040004F3000084F3000084F3000084F30000894
:100050004F3000084F3000084F3000084F30000884
:100060004F3000084F3000084F3000084F30000874
:100070004F3000084F3000084F3000084F30000864
:100080004F3000084F3000084F3000084F30000854
:100090004D2C00084F3000084F3000084F3000084A
:1000A0004F300008CF2800084F3000089326000882
:1000B0003909000849090008590900084F300008AB
:1000C0004F3000084F3000084F3000084F30000814
:1000D0004F300008A91F00088B200008F9220008F3
:1000E0004F3000084F3000084F3000084F300008F4
:1000F0004F3000084F3000084F3000084F300008E4
:100100004F3000084F300008690900084F300008E0
:100110004F3000084F3000084F3000084F300008C3
:100120004F3000084F3000084F3000084F300008B3
:1001300000F002F800F068F80AA090E8000C824491
:100140008344AAF10107DA4501D100F05DF8AFF26E
:10015000090EBAE80F0013F0010F18BFFB1A43F0A5
:100160000103184794F00000B4F000000A444FF077
:10017000000C10F8013B13F0070408BF10F8014B06
:100180001D1108BF10F8015B641E05D010F8016B4B
:10019000641E01F8016BF9D113F0080F1EBF10F8AF
:1001A000014BAD1C0C1B09D16D1E58BF01F801CBD2
:1001B000FAD505E014F8016B01F8016B6D1EF9D555
:1001C0009142D6D37047000000230024002500266A
:1001D000103A28BF78C1FBD8520728BF30C148BFAA
:1001E0000B60704764290AF0D18775290AF0CE8721
:1001F00063290BF0488173290BF04D810020704773
:100200001FB51FBD10B510BD0BF0C2F91146FFF7A9
:10021000F7FF00F097F80BF0E0F903B4FFF7F2FFF7
:1002200003BC02F0B7FE0000224B19680868B0E872
:10023000F00F80F30988BFF36F8F4FF0000080F359
:1002400011884EF00D0E704700000000064800684F
:10025000006880F3088862B661B6BFF34F8FBFF3C2
:100260006F8F00DF00BF00BF08ED00E0EFF30980F3
:10027000BFF36F8F0F4B1A6820E9F00F106008B5BD
:100280004FF0500080F31188BFF34F8FBFF36F8F93
:1002900005F028FF4FF0000080F31188BDE808400A
:1002A00019680868B0E8F00F80F30988BFF36F8F12
:1002B000704700BFD4000020EFF3058070470000B6
:1002C0002DE9FC4107F0C2F800240425CDE90054D3
:1002D0004FF400782346424623A1274805F074FCDA
:1002E0000326CDE90064AF0100233A4623A1274845
:1002F00005F06AFCCDE900640023424624A12748AA
:1003000005F062FCCDE900640023802224A1274887
:1003100005F05AFCCDE9005400233A4624A12748B1
:1003200005F052FCCDE900540023424624A12748A1
:1003300005F04AFC2648006805F071FCBDE8FC4168
:1003400007F09EB81CB507F017FA214904200023D6
:10035000CDE9000182011FA1AFF29B0005F034FC42
:1003600005F0D8FF00201CBD42616C616E63655FC3
:100370007461736B00000000D9A800084D50553916
:100380003235305F7461736B000000004FAE0008BF
:1003900073686F775F7461736B00000031870008CA
:1003A0006C65645F7461736B00000000410C0008B1
:1003B000505354574F5F7461736B00006B16000805
:1003C000444154415F7461736B0000003F1D00089D
:1003D0000000002073746172745F7461736B0000BD
:1003E0007047FEE7FEE7FEE7FEE770470CB5002228
:1003F0004C4800920192016841F4803101604FF451
:10040000A063016801F4003101910099491C009139
:10041000019911B900999942F3D10168890333D543
:100420000121019140490A6842F010020A600A68FD
:1004300022F003020A600A6842F002020A60416880
:10044000416041684160416841F4806141604168B8
:1004500021F47C114160416841F4E8114160016878
:1004600041F08071016001688901FCD5416821F08B
:1004700003014160416841F0020141604168C1F3FC
:1004800081010229FAD10CBD01920CBD254810B59D
:10049000016841F0010101604168244A1140416056
:1004A0000168234A11400160016821F48021016044
:1004B000416821F4FE0141604FF41F018160FFF7A4
:1004C00095FF1C494FF00060086010BD154A10B53B
:1004D0005068194B10F00C01184803D0042901D0C2
:1004E000082901D0036012E05168536801F47011CB
:1004F0004FF0020413F4803F04EB914102D05368A3
:100500009B0301D50E4B00E00B4B59430160516832
:100510000A4AC1F30311121D515C0268CA4002600D
:1005200010BD000000100240002002400000FFF853
:10053000FFFFF6FE08ED00E000127A000400002044
:1005400000093D0070B586B001214FF4047003F03E
:1005500028F84FF4004002F0B8FF1020ADF8140066
:1005600000248DF8174005A93F4802F032FE01260D
:10057000ADF814608DF8174005A93C4802F029FE3B
:100580003B4D284603F068FF4FF46020CDE902049C
:100590008DF8044000948DF805408DF81060694690
:1005A000284603F075FF0121284603F099FF2846ED
:1005B00003F0B3FF284603F0B5FF0028FAD1284620
:1005C00003F0B7FF284603F0B9FF0028FAD106B0C0
:1005D00070BD10B5264C014607230122204603F0CA
:1005E000D7FF0121204603F0B0FF0221204604F08E
:1005F000A3F80028F9D02046BDE8104004F00CB85C
:100600002DE9F04100250E4607462C4608E0384605
:10061000FFF7DFFF0544052002F05CFC641CE4B238
:10062000B442F4D3B5FBF6F080B2BDE8F08110B56A
:100630000E20FFF7CEFF0CF037FB4FF066320D4B6C
:100640000CF082FB00220C4B0CF07EFB4FF0804242
:100650000A4B0CF079FB6FF00B020DF032FABDE89B
:1006600010400CF095B8000000100140000C014053
:100670000024014066660A4000002640E17AF03F0F
:1006800010B5012188B0084602F094FF01210C202A
:1006900002F087FF0121084602F083FF0121B648DE
:1006A00002F022FE0121B54802F01EFE4FF4004088
:1006B000ADF80C0004248DF80F4003A9B04802F0F7
:1006C00088FD0820ADF80C008DF80F4003A9AD4857
:1006D00002F07FFD684603F063FC00204FF6FF71D7
:1006E000ADF80410ADF80000ADF80600ADF802005A
:1006F00024076946204603F0CFF900231A46032158
:10070000204603F0EEFC04A803F05DFC0A21ADF8DE
:10071000181004A9204603F077FB0121204603F0BE
:1007200089FE01221146204603F073FC0021204679
:1007300003F057FE0121204603F056FC08B010BD1F
:1007400010B588B00121022002F034FF01210420FD
:1007500002F027FF0121084602F023FFC020ADF878
:10076000180004208DF81B0006A9854802F031FD11
:10077000684603F015FC00204FF6FF71ADF8041039
:10078000ADF80000804CADF80600ADF802006946F7
:10079000204603F081F900231A460321204603F086
:1007A000A0FC03A803F00FFC0A21ADF8141003A964
:1007B000204603F029FB0121204603F03BFE0122E5
:1007C0001146204603F025FC0021204603F009FED7
:1007D0000121204603F008FCB0E710B588B00121E4
:1007E000042002F0E7FE0121082002F0DAFEC0201A
:1007F000ADF8180004208DF81B0006A9614802F02E
:10080000E8FC684603F0CCFB00204FF6FF71ADF822
:100810000410ADF800005D4CADF80600ADF8020024
:100820006946204603F038F900231A460321204682
:1008300003F057FC03A803F0C6FB0A21ADF814101F
:1008400003A9204603F0E0FA0121204603F0F2FD5F
:1008500001221146204603F0DCFB0021204603F074
:10086000C0FD0121204603F0BFFB67E710B588B04B
:100870000121082002F09EFE0121042002F091FED9
:100880000320ADF8180004208DF81B0006A93C4891
:1008900002F09FFC684603F083FB00204FF6FF71D7
:1008A000ADF80410ADF80000394CADF80600ADF815
:1008B00002006946204603F0EFF800231A460321A0
:1008C000204603F00EFC03A803F07DFB0A21ADF8DF
:1008D000141003A9204603F097FA0121204603F0E3
:1008E000A9FD01221146204603F093FB002120467A
:1008F00003F077FD0121204603F076FB1EE700217F
:10090000022807D003280BD004280CD005280DD0CE
:10091000002070474FF08042B2F924009184704764
:10092000194A243204E0194A243201E0184A2432D8
:10093000B2F90000118070474FF08040018A018AAF
:1009400021F00101018270470F48103001880188B1
:1009500021F00101018070470C48103001880188A6
:1009600021F0010101807047094810300188018899
:1009700021F00101018070470002300000011800E1
:1009800000080140000C0140000400400008004045
:10099000000C0040F8B50121082002F002FE4FF4DF
:1009A0008070ADF8000010248A4E8DF803400325B6
:1009B0008DF802506946304602F00BFC6001ADF83C
:1009C00000008DF803408DF802506946304602F071
:1009D00000FC2902304602F066FCF8BD70B57D4887
:1009E000001D016821F0F0010160016841F0300153
:1009F0000160794C0120C4F8A401C4F8A0010420CE
:100A000004F5D07402F04EFA00256560042002F06F
:100A100049FA256070BD6F4810B5001D016821F0CE
:100A2000F0010160016841F0300101606A4C002072
:100A3000C4F8A001C4F8A401042004F5D07402F0A5
:100A400031FA012020606060BDE81040042002F00F
:100A500029BA70B55F480024001D016821F0F0013B
:100A60000160016841F0800101605B4D0126C5F81D
:100A7000A461304602F016FAC5F8A061012002F028
:100A800011FA07E0641CE4B2FA2C03D9FFF7C3FFA4
:100A9000012070BDD5F824010028F3D1C5F8A001CC
:100AA00070BD70B54C4C0025C4F8A0514948001DDC
:100AB000016821F0F0010160016841F0300101603E
:100AC000C4F8A451022004F5D07402F0EBF901201F
:100AD0002060022002F0E6F9256070BD70B53E4C42
:100AE0000026C4F8A0613B48001D016821F0F00118
:100AF0000160016841F0300101600125C4F8A45192
:100B0000022004F5D07402F0CDF92560022002F035
:100B1000C9F9266070BD2DE9F04105462D48001D3C
:100B2000016821F0F0010160016841F030010160CD
:100B3000294E0027C6F8A0713C464FF00108E8098D
:100B4000C6F8A4016806050E022002F0ABF9C6F84B
:100B5000A081022002F0A6F9C6F8A071022002F0DE
:100B6000A1F9641CE4B2082CE9D3BDE8F0812DE9B9
:100B7000F047814617480024001D016821F0F0016C
:100B80000160016841F080010160134E254627464F
:100B90004FF00108C6F8A071022002F083F9C6F8F0
:100BA000A0816006040ED6F8240108B1641CE4B2EA
:100BB000012002F077F96D1CEDB2082DEAD3B9F1EE
:100BC000000F04D0FFF76DFF2046BDE8F087FFF768
:100BD00085FFF9E7000C01400080214238B5012172
:100BE000402002F0DEFC4FF48064ADF8004010209D
:100BF0008DF803000320224D8DF802006946284637
:100C000002F0E7FA2146284602F04DFB38BD38B520
:100C10000121082002F0C5FC4FF48064ADF80040CB
:100C200010208DF803000320164D8DF80200694650
:100C3000284602F0CEFA2146284602F036FB38BD9F
:100C4000114C124DD4F8A801C043C4F8A80168683B
:100C500005F07CF9F6E710B50B4B002460B10B4AA8
:100C60001168491C1160814205D1D3F8A801C04325
:100C7000C3F8A801146010BDC3F8A84110BD00005E
:100C800000180140000C0140000023422000002019
:100C90002DE9F84F0121042002F083FC01210820F6
:100CA00002F07FFC0121102002F07BFC012140209A
:100CB00002F077FC0820ADF8000010248DF8034006
:100CC00003258DF802506946E14802F082FA0420BB
:100CD000ADF800008DF803408DF802506946DC48FD
:100CE00002F077FAADF800408DF803408DF802501D
:100CF0006946D74802F06DFA2026ADF800608DF8FD
:100D000003408DF802506946D14802F062FA4FF470
:100D10008058ADF80080DFF83CB38DF803408DF8C3
:100D200002506946584602F054FAADF80060DFF808
:100D300028938DF803408DF802506946484602F02A
:100D400048FAE701ADF80070DFF810A38DF8034012
:100D50008DF802506946504602F03BFAE602ADF8C3
:100D600000608DF803408DF802506946504602F04D
:100D700030FA0821B64802F098FA0421B44802F08B
:100D800094FA1021B24802F090FA2021B04802F003
:100D90008CFA4146584602F088FA2021484602F073
:100DA00084FA3946504602F080FA3146504602F045
:100DB0007CFABDE8F88F2DE9F04389468046012191
:100DC00089B0480302F0EDFB0121102002F0E9FB9D
:100DD0004020ADF8100018249F4F8DF813400326D3
:100DE0008DF8126004A9384602F0F3F98020ADF8BE
:100DF00010008DF813408DF8126004A9384602F0F7
:100E0000E8F9B815ADF810008DF813408DF81260B0
:100E100004A9384602F0DDF97D15ADF810508DF8C3
:100E200013408DF8126004A9384602F0D2F9ADF8EB
:100E30001880DFF82C82ADF8149001260024ADF85C
:100E40001A60ADF8164005A9404602F025FE60275D
:100E5000ADF80070ADF80260ADF80640ADF808409E
:100E6000ADF80E506946404602F04FFE082140465C
:100E700003F098F9ADF80070ADF80260ADF80640E7
:100E8000ADF80840ADF80E506946404602F072FEDB
:100E90000821404603F096F9ADF80070ADF8026005
:100EA000ADF80640ADF80840ADF80E506946404632
:100EB00002F09CFE0821404603F08EF9ADF8007068
:100EC000ADF80260ADF80640ADF80840ADF80E5040
:100ED0006946404602F0C4FE0821404603F082F90C
:100EE0000121404603F036F90121404603F07CF829
:100EF0000121404603F082F809B0BDE8F08308B54F
:100F00000121402002F04DFB0120ADF800004820F7
:100F10008DF8030069464F4802F05BF908BDF0B553
:100F20000D46044601218DB0084602F03AFB01212E
:100F30004C4802F0D9F90121C80202F032FB01212C
:100F4000402002F02EFB4FF42850ADF81C00282062
:100F5000404E8DF81F0007A9304602F03AF94FF4D1
:100F60008040ADF81C0018208DF81F0003208DF87C
:100F70001E0007A9304602F02CF9ADF824400024E9
:100F8000394FADF82050ADF82640ADF8224008A901
:100F9000384602F081FD0125ADF80040ADF804505F
:100FA0001126ADF80240ADF80640ADF8086069467C
:100FB000384602F029FF0420ADF80000ADF80450D7
:100FC000ADF80240ADF80640ADF808606946384615
:100FD00002F01AFF0820ADF80000ADF80450ADF89B
:100FE0000240ADF80640ADF808406946384602F0C8
:100FF0000BFF6020ADF80C006802ADF81A00ADF8E8
:101000000E50ADF81240ADF8144003A9384602F076
:1010100027FE0821384603F0E5F81B208DF82C0048
:101020008DF82D508DF82E408DF82F500BA802F022
:1010300026F801220E21384602F0EBFF0121384646
:1010400002F0DCFF0121384602F0CEFF0DB0F0BD0A
:10105000000801400018014000100140000C014050
:1010600000340140C0001600002C014030B50023C0
:10107000FA4A012411B1C2F8A04101E0C2F8A0313E
:101080000021C2F89431050602D5C2F8984101E06A
:10109000C2F89831C2F894414006491C000EC9B20A
:1010A0000829EED3C2F8A04130BD70B5EC4E002542
:1010B00005F1B000C0B20021FFF7D8FF00210846BB
:1010C000FFF7D4FF00211020FFF7D0FF002406EB2C
:1010D000C4000121405DFFF7C9FF641CE4B2802C0D
:1010E000F5D36D1CEDB2082DE2D370BD00B5002123
:1010F0008D20FFF7BBFF00211420FFF7B7FF002171
:10110000AF205DF804EBB1E700B500218D20FFF7BB
:10111000ADFF00211020FFF7A9FF0021AE205DF8F0
:1011200004EBA3E710B40021CD4B0A46002003EBEB
:10113000C004401CC0B262548028F8D3491CC9B214
:101140000829F3D310BCB0E710B57F2816D83F2983
:1011500014D80723A3EBD10301F00701C1F1070461
:101160000121A140BE4CDBB204EBC000002AC25CEE
:10117000C9B201D00A4300E08A43C25410BD2DE930
:10118000F04F203A9C460D468246884602F0FF0901
:101190000026DDF824B02FE0BCF10C0F08D0B149D7
:1011A00001EB09100027845D200607D55A4609E0A7
:1011B000AD4909EB490001EB8000F3E7BBF1000FFB
:1011C00012D0002229465046FFF7BEFF60066D1C74
:1011D000040EEDB2A5EB0800604507D10AF101004D
:1011E000454600F0FF0A05E00122EBE77F1CFFB255
:1011F000082FD9D3761CF6B26645CDD3BDE8F08F63
:101200000346012000E05843491EC9B2FBD2704793
:101210002DE9FF4F81B00027DDF838B01D4692461A
:1012200080463C464FF001094FEA5B0627E0281B49
:10123000401EC1B20A20FFF7E3FFBAFBF0F00A211B
:10124000B0FBF1F201FB120027B9691E8C4201DAF2
:1012500048B101273030C2B206FB0480C0B25B4601
:10126000CDF8009006E006FB0480C0B25B46202269
:10127000CDF800900299FFF782FF641CE4B2AC4203
:10128000D5D305B0BAE7F8B516460D460446012792
:1012900014E07A2C02D900241035EDB23A2D03D98E
:1012A00000242546FFF73EFF009732780C2329469D
:1012B0002046FFF764FF0834E4B2761C307800283B
:1012C000E7D1F8BD38B50121402002F06AF94FF4AA
:1012D000F070ADF8000010208DF8030002208DF8AA
:1012E00002006946614801F074FF012003F028FE06
:1012F000002002F0F1F8002003F0D6FD002003F0FA
:101300001FFE564C0020C4F89C01642004F5CE74E6
:1013100001F0E0FD012020600021AE20FFF7A6FED5
:101320000021D520FFF7A2FE00215020FFF79EFEEE
:101330000021A820FFF79AFE00213F20FFF796FE2C
:101340000021D320FFF792FE00210846FFF78EFE12
:1013500000214020FFF78AFE00218D20FFF786FE46
:1013600000211420FFF782FE00212020FFF77EFEDF
:1013700000210220FFF77AFE0021A120FFF776FE70
:101380000021C020FFF772FE0021DA20FFF76EFE79
:1013900000211220FFF76AFE00218120FFF766FE80
:1013A0000021EF20FFF762FE0021D920FFF75EFE4B
:1013B0000021F120FFF75AFE0021DB20FFF756FE47
:1013C00000213020FFF752FE0021A420FFF74EFE3F
:1013D0000021A620FFF74AFE0021AF20FFF746FEBE
:1013E000FFF7A0FE38BD10B50446B031C8B20021E9
:1013F000FFF73CFE102040EA14100021FFF736FEF4
:1014000004F00F00BDE8104000212FE62DE9FF4F4A
:101410009846DDF834C091468A4600254FEADC073D
:10142000DFF84CB015E00AEB0500C1B20098FFF7F9
:10143000DAFF07FB095000240BEB001605E0305DD6
:101440000121FFF713FE641CE4B24445F7D36D1C81
:10145000EDB2B5EBDC0FE6D3BDE8FF8F0000234211
:10146000C80200200EE000089ADB000800180140C6
:10147000FEE50008FE49085C70472DE9F84F01259C
:101480008046ADF80050FA4800264670ADF800508E
:10149000F84FF94CDFF8E4B381464FF6FF7A25E0C8
:1014A000BDF8000010EA080F02D0C7F88C5101E027
:1014B000C7F88C61C4F8B051052001F0F3FCC4F802
:1014C000B061052001F0EEFCC4F8B051DBF83C013E
:1014D00030B199F80110BDF80020114389F80110CE
:1014E000BDF800100AEA4100ADF80000BDF80000A8
:1014F000FF28D5D9BDE8F84F102001F0D3BC2DE965
:10150000FC4700268DF800600125ADF80450DA4C48
:10151000C4F8B461DA4F3878FFF7AFFF7878FFF797
:10152000ACFF02208DF80000DFF85083D04F4FF65B
:10153000FF792CE0ADF804501DE0C4F8B05105204F
:1015400001F0B0FCC4F8B061052001F0ABFCC4F8B8
:10155000B051D8F83C0140B19DF80000BDF804102E
:10156000385C08439DF800107854BDF8041009EA6F
:101570004100ADF80400BDF80400FF28DDD91020BB
:1015800001F090FC9DF80000401C8DF800009DF8D3
:1015900000000928CED3C4F8B451BDE8FC87002070
:1015A000B34A01461154401CC0B20928FAD370470F
:1015B00070B5FFF7F4FFFFF7A2FFAD48B04AB0F8EF
:1015C0000340AF48083244800020012512F8103053
:1015D00000F101005B1E05FA03F12142C0B202D006
:1015E0001028F3D3002070BD70B5FFF7E1FF0CF0B9
:1015F00071F8A4499E4C05460860E0790CF06AF841
:10160000A1490860207A0CF065F8A04906460860F8
:1016100060790CF05FF89E490860A0790CF05AF8E8
:101620009C49974A086001209B49B5F1814F01D13F
:101630000B78C3B15268002A14D0984A964211DA46
:101640000A78002A0ED1964A1268B2F57A7F09DB31
:1016500008709449002008709349087093490870F5
:101660009349087070BD5060E7E708B501F066FC6B
:1016700000900A21684604F00FFCFFF7B5FFF8E779
:1016800038B50121682001F08CFF0820ADF800007A
:1016900010258DF8035003248DF8024069468548D3
:1016A00001F097FDE802ADF8000028208DF8030056
:1016B0006946814801F08DFD2003ADF800008DF8EA
:1016C00003508DF8024069467C4801F082FD38BD28
:1016D00070B5694D0020C5F8B401694C05F5DA759F
:1016E0002078FFF7CAFE6078FFF7C7FE0120286068
:1016F0005F484078732801D0012070BD002070BD84
:1017000070B55D4C054600200E46C4F8B4011020AB
:1017100004F5DA7401F0C6FB0120FFF7AEFE4220AB
:10172000FFF7ABFE0020FFF7A8FE2846FFF7A5FE57
:101730003046FFF7A2FE0020FFF79FFE0020FFF7D4
:101740009CFE0020FFF799FE0020FFF796FE012087
:101750002060BDE87040102001F0A4BB10B5464CDD
:101760000020C4F8B401102004F5DA7401F09AFBEB
:101770000120FFF782FE4220FFF77FFE0020FFF7E7
:101780007CFE0020FFF779FE0020FFF776FE0120A7
:101790002060BDE81040102001F084BB10B5364C2D
:1017A0000020C4F8B401102004F5DA7401F07AFBCB
:1017B0000120FFF762FE4320FFF75FFE0020FFF7E6
:1017C0005CFE0120FFF759FE0020FFF756FE0020C7
:1017D000FFF753FE0020FFF750FE0020FFF74DFEFD
:1017E0000020FFF74AFE01202060BDE810401020D5
:1017F00001F058BB10B5204C0020C4F8B401012002
:1018000004F5DA74FFF739FE4420FFF736FE0020B6
:10181000FFF733FE0120FFF730FE0320FFF72DFE18
:101820000020FFF72AFE0020FFF727FE0020FFF729
:1018300024FE0020FFF721FE01202060BDE81040BB
:10184000102001F02FBB10B50B4C0020C4F8B401E0
:10185000102004F5DA7401F025FB0120FFF70DFEDE
:101860004D20FFF70AFE0020FFF707FE002027E0CB
:10187000C80600200080224200802142000023424E
:1018800028000020B8010020A8010020AC010020A1
:10189000B0010020B4010020580100200000EC42FB
:1018A000A40200205A010020590100205B01002001
:1018B0005C0100200014014000180140000C0140B0
:1018C000FFF7DBFD0120FFF7D8FD01202060BDE818
:1018D0001040102001F0E6BA10B52C4C0020C4F8DE
:1018E000B401102004F5DA7401F0DCFA0120FFF7EE
:1018F000C4FD4320FFF7C1FD0020FFF7BEFD00201F
:10190000FFF7BBFD5A20FFF7B8FD5A20FFF7B5FDE2
:101910005A20FFF7B2FD5A20FFF7AFFD5A20FFF71C
:10192000ACFD01202060BDE81040102001F0BABAE3
:1019300010B5FFF713FFFFF711FFFFF70FFFFFF7DA
:101940002DFFFFF757FFBDE81040C5E7104810B561
:101950000078A0B10F4CE0790BF0BCFE0E49086096
:10196000207A0BF0B7FE0D49086060790BF0B2FEEB
:101970000B490860A0790BF0ADFE0A490860FFF73B
:1019800017FE0BF0A7FE0849086010BD0080214239
:1019900058010020C8060020A8010020AC0100204A
:1019A000B0010020B4010020B80100207CB5FF4C3C
:1019B00000206D46215C2954401CC0B20828F9D390
:1019C000294640F2011001F033FA00202118097A6B
:1019D0002954401CC0B20828F8D369464FF48170DE
:1019E00001F026FA00202118097C2954401CC0B2BD
:1019F0000828F8D3694640F2031001F019FA7CBDBB
:101A0000EB490880081F01884906FCD5704700B5DE
:101A1000E64B0022985CFFF7F3FF521CD2B2182A63
:101A2000F8D300BDE3490880081F01884906FCD5AA
:101A3000704700B5DD4B0022985CFFF7F3FF521CA6
:101A4000D2B2182AF8D300BD30B5034600200129D0
:101A500008D10022D54C03E0A55C6840521CD2B2EC
:101A60009A42F9D3002908D1D04A323203E0545CBB
:101A70006040491CC9B29942F9D330BD2DE9F84FF5
:101A8000CA4C7B20CE4B20767D2084F82E00CA489D
:101A9000CA491B6800780093D1F800A0CB49C94A15
:101AA0000026D1F80090CA49C74DD2F800B0D1F84D
:101AB0000080C84906280F687DD2DFE800F0033EA9
:101AC000FAFAFBFA394640460BF07AFC49460BF02D
:101AD00077FC51460BF074FC6FF001010CF01FF81D
:101AE00029460BF03FFE0BF0A1FD608339464046CE
:101AF0000BF040FF49460BF063FC51460BF03AFFF8
:101B00006FF001010CF00BF829460BF02BFE0BF0E7
:101B10008DFDA083584600990BF052FC834688F057
:101B2000004039460BF026FF49460BF049FC514670
:101B30000BF046FC6FF00101E3E00020A6490AF03B
:101B4000CFFD4FF0FF3B5A460BF0BBFF0746A148C5
:101B50008846D0F800A09D485146006881460BF0A9
:101B600009FF59460BF0DBFF0BF0FEFB3A464346FC
:101B70000AF0FCFE0022994B0BF0E6F80BF04EF851
:101B8000608393480121076838460BF0C8FF51462F
:101B90000BF0F0FE49460BF0EDFEDFF844824146C3
:101BA0000BF082FC29460BF0DDFD0BF03FFDA0831E
:101BB0005146384600E011E00BF002FC49460BF0BC
:101BC000FFFB41460BF070FC864909680BF06CFC8A
:101BD00029460BF0C7FD0BF029FDE083824AA3469E
:101BE0008348B2F9021061848A461188494209B2D9
:101BF000A1848946B2F90410E18488467B49B1F991
:101C0000027027850A88524214B2ABF82A40007845
:101C10000090002879D0ABF82C60764829460068FF
:101C20000BF0A0FD0BF002FDABF820009BF81810A4
:101C30008BF8001000998BF80110BBF81A105D4664
:101C40000A0A8BF802208BF80310BBF81C100A0A52
:101C50008BF804208BF80510BBF81E100A0A8BF8CD
:101C60000620E9714FEA1A21297285F809A04FEA86
:101C70001921A97285F80B904FEA1821297385F86C
:101C80000D80390AA973EF73210A29746C74A98D28
:101C90000A0AAA74E974010A2975687501211620D7
:101CA000FFF7D2FEA87595F82E00E875BDE8F88F0D
:101CB00000E02BE0394640460BF082FB49460BF032
:101CC0007FFB51460BF07CFB6FF001010BF027FF0F
:101CD00029460BF047FD0BF0A9FC6083A68358460C
:101CE00000990BF06DFB834687F0004041460BF0F6
:101CF00041FE49460BF064FB51460BF061FB4FF08F
:101D0000FF310BF00CFF594660E714E039464046BE
:101D10000BF056FB4FF0FF310BF001FF29460BF0A3
:101D200021FD0BF083FC6083A683414638460BF00F
:101D300021FE00994AE78988ABF82C106DE708B5B9
:101D400001F0FCF800903221684604F0A5F8FFF796
:101D500095FEFFF76EFEFFF75AFEFFF727FEF2E74C
:101D600030B5054687B00121042001F01AFC01219D
:101D7000880301F016FC4FF40070ADF8100003204A
:101D80008DF8120018201C4C8DF8130004A9204671
:101D900001F01FFA2015ADF8100048208DF813004F
:101DA00004A9204601F015FA252027E0120700209B
:101DB000044800400438014049010020F85A00203E
:101DC000980100209C01002000007A44E45A002081
:101DD000BC5A0020D05A00200000084000408F402C
:101DE00000004040A0010020AE020020A802002018
:101DF0004801002018000020000801408DF8140060
:101E000001218DF8151000248DF816408DF817105B
:101E100005A801F034F9ADF80440ADF80640ADF87E
:101E20000840ADF80C400C20FD4CADF80A000095C0
:101E30006946204601F034FC012240F2255120463B
:101E400001F0ABFC0121204601F09DFC07B030BD44
:101E500030B50546012187B0084601F0A2FB0121FB
:101E6000202001F09EFB0121480401F0A3FB012189
:101E7000082001F039FA2020ADF8100003208DF879
:101E800012001820E74C8DF8130004A9204601F039
:101E9000A0F94020ADF8100048208DF8130004A9E7
:101EA000204601F096F926208DF8140001218DF8C6
:101EB000151000248DF816408DF8171005A801F0B4
:101EC000DEF8ADF80440ADF80640ADF80840ADF8D6
:101ED0000C400C20D44CADF80A0000956946204611
:101EE00001F0DEFB012240F22551204601F055FCB5
:101EF0000121204601F047FCA8E730B50546012145
:101F000087B0084601F04DFB0121102001F049FB8C
:101F10000121880401F04EFB0121C44801F0E4F9DD
:101F20004FF48060ADF8100003208DF812001820E7
:101F3000BF4C8DF8130004A9204601F04AF9E114C2
:101F4000ADF8101048208DF8130004A9204601F0C8
:101F500040F927208DF8140002208DF81500002488
:101F60008DF8164001208DF8170005A801F087F8BC
:101F7000ADF80440ADF80640ADF80840ADF80C40AF
:101F80000C20AC4CADF80A0000956946204601F0E3
:101F900087FB012240F22551204601F0FEFB012182
:101FA000204601F0F0FB51E72DE9F0479C4D40F24F
:101FB0002551284601F0A8FC002863D00024012602
:101FC000284601F03AFCC1B29B480068B0F57A7F20
:101FD00058DB9B4B994D002218787B29295401D05E
:101FE00000284FD0401CC0B218700B284AD11A707C
:101FF000A87A7D2846D10020295C401C4C40092845
:10200000FADB687AA04200D0E6BB8E48017849B975
:10201000012101708C4802708C4802708C4802705B
:102020008C4802702879E97800EB012000B20BF0AF
:1020300039FB0646A8796979DFF81CA200EB01207C
:1020400000B20BF02FFB0446287AE979DFF80C92F6
:1020500000EB012000B20BF025FBDFF808820546FB
:102060007F4F414630460BF01FFACAF80000414648
:1020700020460BF019FAC9F80000414628460BF03B
:1020800013FA38600020BDE8F0872DE9F04740F2F0
:102090002551654801F038FC002871D06248001DC8
:1020A000008871490968B1F57A7F69DB0126644CC3
:1020B000002541280ED1217941290BD162490A78A6
:1020C00042B9624A1570624A15700E7061490D700E
:1020D0005C490D70C7B26549654BDFF898C1664A27
:1020E00027714B2808D0492808D04A2806D01278F2
:1020F0002AB1012A0BD01EE016700CE01570A0F179
:102100004102072A27D9082814DC0F7013E043285E
:1021100009D047280BD01D708CF8005041281AD0E8
:10212000452818D006E01D708CF8006002E01E7093
:102130008CF800500D70DFF804815049DFF84091B1
:1021400008F10B0858280AD059280DD07B2818D040
:102150007D281DD00EE0A0F140020A70EBE7D9F80F
:1021600000000BF02DF903E0D9F800000BF002FCA1
:10217000C9F800006078012804D002280AD093E052
:1021800099E06670A07808F80070401CA0708BE0A1
:102190000220607098F803104046502906D041781C
:1021A000232979D0A178E170C24629E0354806702C
:1021B00072E0A178081A0AF060FD02460B46002082
:1021C000314909F0A1FD0646E0780F4680465044AB
:1021D00010F8010C30380AF050FD32463B460AF048
:1021E000B3FD06460F46A0680BF0BEF83B463246EC
:1021F0000AF000FB0AF0CCFAA060A8F10100E07040
:10220000E0780428D5D29AF801003038032843D268
:10221000DFE800F0023C3F00A168C9F800103BE095
:102220000038014000140140004400401000140038
:102230000010014000480040D8010020D4060020D2
:10224000500000205C0100205901002058010020AE
:102250005A0100205B010020840100208801002039
:102260008C01002000007A44A40200205D010020BF
:10227000A4010020A5010020A60100200000C84202
:102280004C010020A7010020000024404349A06821
:1022900001E04349A06808606570A570E5703221CF
:1022A0004048A56009F03EF8D9F8001011F1FF4F41
:1022B00001D3C9F800500020E5E62DE9F04101EB1B
:1022C000002004B24FF47A7794FBF7F007FB10403C
:1022D0000AF0D3FC344A354B0AF036FD054694FB30
:1022E000F7F00E460AF0C9FC2A4633460AF082FA95
:1022F000BDE8F0410AF04CBA70B52D4C40F22551C2
:10230000204601F001FBE8B3204601F096FAC1B285
:1023100028480068B0F57A7F36DB274A214C002533
:10232000507965347B29215400D058B3401CC0B289
:1023300050710B2828D15571A07A7D2824D1002115
:102340000920FFF781FB617A88421DD11B48057087
:102350001B4805701B4805701B4805701B4805701D
:102360002179E078FFF7A9FF19490860A179607920
:10237000FFF7A3FF17490860217AE079FFF79DFF77
:10238000154900E000E00860002070BD1349088096
:10239000081F01884906FCD5704700005001002045
:1023A00054010020DF060020FCA9F1D24D62503F0D
:1023B00000480040D80100205000002058010020B3
:1023C0005A010020590100205B0100205C0100201F
:1023D00084010020880100208C010020044400407A
:1023E00008B50121602001F0DCF84FF48070ADF8F1
:1023F000000048208DF803006946604800F0E9FEBF
:1024000008BD5F485F49027812B1D1F8202122B19E
:10241000D1F82011012904D005E00021017001202C
:102420007047012101700020704700210020401CEE
:102430003228FCDB491C3229F8DB704730B5514AA1
:10244000D2F820414E4B002144B15981D2F82041AD
:102450005D782C434FF0010504D004E05C89641CD6
:102460005C81F3E75D709C784CB95C78012C03D1FA
:10247000DC78641CDC709D70DC78022C04D0D2F80F
:102480002021012A04D005E0D9701981022030BD35
:1024900059709970DA78012A11D11A89521C92B2B6
:1024A0001A81824206D95A89824203D2D97019818F
:1024B000012030BD5A89824201D9D970198100208A
:1024C00030BD30B52F4AD2F820412D4B002144B108
:1024D000D981D2F820411D792C434FF0010504D059
:1024E00004E0DC89641CDC81F3E71D715C794CB984
:1024F0001C79012C03D19C79641C9C715D719C79C1
:10250000022C04D0D2F82021012A04D005E09971D0
:102510009981022030BD197159719A79012A11D11E
:102520009A89521C92B29A81824206D9DA898242F1
:1025300003D299719981012030BDDA89824201D993
:1025400099719981002030BD0D4A0023508A18B935
:102550000C49D1F8201109B1138209E0118A491CF4
:1025600089B211820F2903D901205082138270474A
:10257000012800D153820020704700000014014060
:102580005C0000200080224270B50D460446012107
:1025900088B0084601F005F80121C80201F001F8F1
:1025A0000121402000F0FDFF0121CC4800F09CFEFD
:1025B0004FF4D442ADF81C2028228DF81F2007A923
:1025C000C74800F006FEADF810400024C54EADF837
:1025D0000C50ADF81240ADF80E4003A9304601F0A2
:1025E0005BFA01250F20ADF80040ADF80450ADF8BE
:1025F0000800ADF80240ADF806406946304601F0EB
:1026000003FC0420ADF80000ADF80450ADF8024022
:10261000ADF80640ADF808406946304601F0F4FBDD
:102620000820ADF80000ADF80450ADF80240ADF858
:102630000640ADF808406946304601F0E5FB0C2045
:10264000ADF80000ADF80450ADF80240ADF806401A
:10265000ADF808406946304601F0D6FB1B208DF8E6
:1026600018008DF819408DF81A408DF81B5006A8F7
:1026700000F005FD01221E21304601F0CAFC0121B7
:10268000304601F0BBFC0121304601F0ADFC08B042
:1026900070BD2DE9F047944800248169B1F5C86FF9
:1026A00011DD92490A7872B9914A1268B2F57A7FBF
:1026B00009DB01220A708F490C708F490C708F4919
:1026C0000C708F490C7080460078864D000642F2EF
:1026D0000F764FF4FA772CD40221284601F0ADFE94
:1026E00038B30221284601F0B4FE98F800004006F5
:1026F00028463BD501F08AFEA8F80600B8F8041079
:102700004246884201D2566300E05463401A516B3E
:1027100008445061516A401A00D54042B84200DD79
:1027200051615069506288F800400021284601F04C
:10273000A3FD98F80100000639D40421284601F0D1
:102740007CFEA0B30421284601F083FE98F8010026
:102750004006284648D501F05BFEA8F80A00B8F804
:102760000810424688420ED296630DE001F04EFEFC
:102770000146A8F8041098F8001041F0400188F8CC
:1027800000100221D2E79463401A916B08449061D3
:10279000916A401A00D54042B84200DD91619069CB
:1027A000906288F801400021284601F071FD98F8F8
:1027B0000200000639D40821284601F03EFEA0B3ED
:1027C0000821284601F045FE98F8020040062846F8
:1027D0004DD501F01FFEA8F80E00B8F80C104246C7
:1027E00088420ED2D6630DE001F012FE0146A8F831
:1027F000081098F8011041F0400188F801100221FA
:10280000D2E7D463401AD16B0844D061D16A401A30
:1028100000D54042B84200DDD161D069D06288F86D
:1028200002400021284601F047FD36480078022882
:102830004BD098F80300C146000646D41021284624
:1028400001F0FBFD002840D01021A846284601F0E9
:1028500000FE99F803004D4640062AD5404601F097
:10286000DBFD6882298A88420ED22E640DE001F0D9
:10287000D1FD0146A8F80C1098F8021041F0400173
:1028800088F802100221CDE72C64401A296C084414
:102890002862296B401A00D54042B84200DD296207
:1028A000286A2863EC7000214046BDE8F04701F03B
:1028B00017BD4446404601F0AFFD2882E87802216A
:1028C00040F04000E8702046EFE7BDE8F08705489B
:1028D0001030018821F0010101807047C00016000E
:1028E00000180140002C0140700000205A01002017
:1028F000A402002059010020580100205B010020A3
:102900005C010020490100202DE9FC5F0024E8B3B0
:10291000E1B3DAB3D3B3491E401E01F0FF09C7B2D9
:10292000521E5B1E0121D6B29DB2084600F039FE50
:102930000121202000F035FE0121480600F03AFE7A
:1029400001214FF4EB1000F0CFFC0220ADF80000A5
:1029500003208DF802001820DFF818848DF803009A
:102960006946404600F035FC4FF0010AADF800A082
:1029700048208DF803006946404600F02AFCFE48D6
:1029800000230360016841F0010100E002E0016002
:10299000021D08E00120BDE8FC9F641CA4B2642C69
:1029A00001D90220F7E71168C907F6D0016883460C
:1029B00001600168016001680160016841F0100177
:1029C00001600168016001680160EB491C310B6026
:1029D000D1F80080DDF830C048EA8C7CC1F800C036
:1029E000D1F800C04CEA07670F60D1F800C04CEA8C
:1029F00009570F600F6847EA06460E600E682E43BF
:102A00000E60016821F0010101604FF6F07005E0F1
:102A1000641CA4B2844201D90320BCE71168C90731
:102A2000F6D1D648016841F001010160D3491C315B
:102A30000A6822F001020A60D04A0C32146844F09D
:102A400001041460021D14681460CC4A1432146826
:102A50001460CA4A40321360121D13600A6842F0C3
:102A600001020A6001680360C3481430016841F044
:102A70000201016014208DF804008DF805A00321E7
:102A80008DF806108DF807A001A800F0F8FA0122D1
:102A90000221584602F02EF900207CE7F0B50646E8
:102AA000B548059D08300468640101D5002008E0A0
:102AB0000468240101D5012003E00068C0003CD572
:102AC0000220AF4C002704EB0014C4F8807599B3C2
:102AD000F600D4F880753743C4F88075D4F8806563
:102AE00046EA8101C4F88015D4F8801541EA420114
:102AF000C4F88015D4F8842503F00F0122F00F02EA
:102B0000C4F88425D4F884250A43C4F88425297997
:102B1000D5F8052041EA0221C4F88C152978D5F8AA
:102B2000012041EA0221C4F88815D4F8801541F04B
:102B30000101C4F88015F0BD01E0FF20FBE7760538
:102B4000C7E78D49083128B1012810D002281BD0D1
:102B50000520704708680A6800F0010002F00202D0
:102B60000243086800F0806042EA1060704708681D
:102B70000A6800F0010002F002020243086800F057
:102B8000006042EA5060704708680A6800F001007F
:102B900002F002020243086800F0805042EA9060AE
:102BA000704718B1012804D00020704772480C30DB
:102BB00001E071481030006800F003007047F0B584
:102BC0006F4CDDE9057504EB0014D4F8B06516F020
:102BD00004061670D4F8B02533D0D2080A60D4F8B1
:102BE000B01501F002011970D4F8B41501F00F010D
:102BF0003970D4F8B8152970D4F8B815090A697075
:102C0000D4F8B815090CA970D4F8B815090EE970F4
:102C1000D4F8BC152971D4F8BC15090A6971D4F827
:102C2000BC15090CA971D4F8BC15090EE97150B195
:102C3000012805D150481030016841F020010160A1
:102C400079E7520DCAE74C480C30F5E72DE9F0471B
:102C50008AB04CA002ACD0E90010CDE9041009A85C
:102C6000CDE9000408AB07AA06A90020FFF7A7FFDB
:102C7000464D287828BB00200646454FDFF814C192
:102C8000DFF81481DFF8149104A912E011D19DF846
:102C90000F202A70012A0CD13E708CF8006088F851
:102CA000006089F8006000202654401CC0B207284C
:102CB000FAD3225C0B5C9A4203D1401CC0B20728B5
:102CC000E4D92878012836D19DF809009DF808102C
:102CD00000EB012000B20AF0E5FC05469DF80B0070
:102CE0009DF80A10DFF8B8A000EB012000B20AF04E
:102CF000D9FC04469DF80D009DF80C10DFF8A49057
:102D000000EB012000B20AF0CDFC284F0646DFF8A8
:102D10009880394628460AF0C7FBCAF800003946B1
:102D200020460AF0C1FBC9F80000394630460AF0D7
:102D3000BBFBC8F800000AB0BDE8F08738B5002436
:102D40000B4600902246214640F20160FFF7A6FEA6
:102D5000054640F6FF7301E0641CA4B22846FFF765
:102D6000F0FE072801D09C42F6D39C4220D30120DC
:102D700038BD0000001401400064004000660040BF
:102D8000006000400A0C0F13181E25005B01002094
:102D900058010020590100205A0100205C01002048
:102DA00084010020880100208C01002000007A446A
:102DB0000020DDE700B5014686B00020FFF7F1FEF8
:102DC000002816D002A8CDE9000105AB04AA03A98A
:102DD0000020FFF7F4FE0398122805D19DF810009B
:102DE00010B99DF8140010B100208DF808009DF86E
:102DF000080006B000BD38B500240B4600902246FE
:102E0000214640F20170FFF749FE054640F6FF7388
:102E100001E0641CA4B22846FFF793FE072801D006
:102E20009C42F6D39C4201D30120A1E700209FE7FA
:102E300038B500240091082322462146FFF72EFED4
:102E4000054640F6FF7301E0641CA4B22846FFF774
:102E500078FE072801D09C42F6D39C4201D3012082
:102E600086E7002084E7000010B5042000F047F951
:102E700038483949394A0068B0FBF1F3B0FBF1F149
:102E80004FF47A7041431370012050804FF0E020DE
:102E9000026942F0020202614161016941F00101EF
:102EA000016110BD70B54FF0E02500216C692B4A1F
:102EB000AB6912785043AA699A42FCD002D2A3EBC4
:102EC000020302E0A4EB0206334419441346814294
:102ED000F1D370BD70B5044603F060FC01280CD03E
:102EE0001E4D6888844203D3B4FBF0F003F02EF843
:102EF0006888B4FBF0F100FB11444FF47A70604332
:102F0000BDE87040CEE770B5054600244FF47A76F0
:102F100003E03046FFF7C6FF641CAC42F9D370BD36
:102F200010B503F03BFC012803D0BDE8104004F0CD
:102F3000B8BA0A484168491C416010BD10B503F099
:102F40002DFC012803D0BDE8104003F030BA03483F
:102F5000406810BD0400002040420F00B400002073
:102F600030BF704772B6704762B670474106074877
:102F7000826942F0010282610548426822F0E06203
:102F8000426042680A4342607047000000100240FD
:102F900000000140704724490A885206FCD5224AA5
:102FA000C1B2121D1180704730B5044685B00121B1
:102FB00044F2040000F0F5FA4FF40071ADF810107F
:102FC00003218DF812101820184D8DF8130004A954
:102FD000284600F0FEF82915ADF8101004208DF8F1
:102FE000130004A9284600F0F4F80020ADF804000E
:102FF0000094ADF80600ADF80800ADF80C000C2008
:103000000B4CADF80A006946204600F049FB00224F
:1030100040F22551204600F0C0FB0121204600F07F
:10302000B2FB05B030BD0000004400400008014084
:10303000003801400948804709480047FEE7FEE79D
:10304000FEE7FEE7FEE7FEE7FEE7FEE7FEE7FEE758
:1030500004480549054A064B704700008D040008E6
:1030600031010008985B002098610020985D0020E5
:10307000985D00202849084328490860704730B50A
:103080000F23C27801780125F2B1244A126801F1B8
:10309000E02102F4E062C2F5E062120AC2F1040427
:1030A000D3404278A24084781C401443220181F826
:1030B0000024007800F01F018D404009800000F1DD
:1030C000E020C0F8005130BD01F01F0085404809E4
:1030D000800000F1E020C0F8805130BD104A11405E
:1030E00001430E48001F016070470C4A121D002961
:1030F000116801D0014300E08143116070474FF037
:10310000E0210428086903D020F00400086170471A
:1031100040F00400FAE700000000FA050CED00E0C2
:1031200080FFFF1F8F4910B5884206D1012104207E
:1031300000F049FA002104203BE08B49884206D187
:103140000121082000F03FFA0021082031E08749E2
:10315000884206D10121102000F035FA002110200C
:1031600027E08349884206D10121202000F02BFA74
:10317000002120201DE07F49884206D10121402006
:1031800000F021FA0021402013E07B49884206D15B
:103190000121802000F017FA0021802009E0774902
:1031A00088420AD184150121204600F00CFA002142
:1031B0002046BDE8104000F006BA10BD10B5012150
:1031C000084600F000FA0021BDE81040012000F0A0
:1031D000FAB9F0B5CC78002204F00F03E40601D56B
:1031E0008C7823430C784FF00F0C14F0FF0F4FF046
:1031F000010E1BD005680E880EFA02F42640A64286
:1032000010D196000CFA06F725EA070703FA06F52F
:10321000CE783D43282E02D0482E02D002E04461F1
:1032200000E00461521C082AE5D305600A88FF2AE1
:103230001CD94468002202F108060EFA06F50E8831
:103240002E40AE420ED196000CFA06F7BC4303FAAC
:1032500006F7CE783C43282E00D14561CE78482E23
:1032600000D10561521C082AE5D34460F0BD4FF639
:10327000FF710180022181700421C17070470246F4
:10328000002092680A4200D001207047806880B216
:10329000704702460020D2680A4200D001207047E1
:1032A000C06880B2704701617047416170470AB1E0
:1032B0000161704741617047C160704741F48032DD
:1032C0008261816182618169806970472C4B10B590
:1032D0001A684FF68074224042EA001008431860D2
:1032E00010BD2849C8617047F0B5254C002801DAA7
:1032F000E36900E06368450D2E0185B2C0F3015714
:10330000B540C0F30342032F05D0C6020AD50326F9
:103310009640B34307E023F07062636823F0706364
:10332000636002E0AB4343F0706201B12A430028BE
:1033300001DAE261F0BD6260F0BD10B58A0721F0EC
:1033400003040F49120F21440F238C6893409C43C0
:103350008C608B68904003438B6010BD0949C1F8B5
:10336000DC00704700080140000C014000100140E3
:103370000014014000180140001C014000200140E1
:103380000000014000002042A548016841F0010111
:1033900001604168A34A114041600168A24A11409E
:1033A0000160016821F480210160416821F4FE017F
:1033B00041604FF41F018160704799490A6822F407
:1033C00080320A600A6822F480220A60B0F5803FE9
:1033D00007D0B0F5802F03D1086840F4A020086022
:1033E0007047086840F48030F9E703460020590927
:1033F0008B4A01290AD002290AD0516A03F01F0220
:10340000012393400B4200D0012070471168F5E77B
:10341000116AF3E718B500204FF4A0640090312042
:10342000FFF7E3FF0099491C0091A14201D0002859
:10343000F5D03120FFF7D9FF002800D0012018BDBA
:10344000774A116821F0F80141EAC0001060704726
:10345000764908607047724B5A68084322F47C1220
:103460001043586070477149086670476C4A51684C
:1034700021F003010143516070476948406800F042
:103480000C007047664A516821F0F0010143516019
:103490007047634A516821F4E0610143516070470D
:1034A0005F4A516821F4605141EAC00050607047A2
:1034B0005B4A0029517A01D0014300E081435172F7
:1034C00070475A49C1F8D8007047554A516821F4ED
:1034D00040410143516070475149002281F820204A
:1034E00081F82020012802D0042802D1052081F88B
:1034F000200070474E490860704749490A6A0243F4
:103500000A6270474A4944390860704730B5444AF6
:103510005168484B11F00C0103D0042901D008294F
:1035200001D0036012E05168536801F470114FF04C
:10353000020413F4803F04EB914102D053689B03D3
:1035400001D53D4B00E03B4B5943016051680F23CF
:1035500003EA1111394B5C5C0168E1404160546839
:10356000072505EA14241C5D21FA04F484605468DC
:1035700005EAD4241B5DD940C1605268032303EAE5
:1035800092322E4B1B1F9A5CB1FBF2F1016130BDF0
:10359000234A0029516901D0014300E08143516170
:1035A00070471F4A0029916901D0014300E081431F
:1035B000916170471A4A0029D16901D0014300E0A6
:1035C0008143D1617047164A0029D16801D0014377
:1035D00000E08143D1607047114A0029116901D090
:1035E000014300E08143116170471149403908608F
:1035F00070470E49C86470470949C8717047084848
:10360000416A41F0807141627047054A01460020DD
:1036100092680A4200D001207047014988727047C1
:10362000001002400000FFF8FFFFF6FE00004242DB
:103630008004424200127A0000093D00C4000020CC
:10364000C44910B588420AD101218C032046FFF7F6
:10365000BAFF2046BDE810400021FFF7B4BFBE49C5
:10366000884202D101214C0410E0BC49884202D1B9
:1036700001218C040AE0BA49884202D10121CC041C
:1036800004E0B84988420AD101210C052046FFF721
:10369000A3FF2046BDE810400021FFF79DBF10BDED
:1036A00030B50446008A85B00D464CF6FF710840DF
:1036B000E98801432182A0894EF6F3110840A988C8
:1036C0002A8911436A8902431143A181A08A4FF6D6
:1036D000FF410840A9890143A1826846FFF716FF10
:1036E0009C48844201D1039800E00298A189090412
:1036F00000EBC00101EB0010296801D5490000E092
:103700008900B0FBF1F06422B0FBF2F109010B0972
:103710006FF018056B4300EB8300A3891D044FF085
:10372000320306D503EBC000B0FBF2F000F0070057
:1037300005E003EB0010B0FBF2F000F00F000843CF
:10374000208105B030BD4FF4165101600021818009
:10375000C18001810C2242818181704710B5028AAB
:103760004FF2FF031A400B884C8823438C88C9888A
:103770000C4323431343038210BD00210180418089
:103780008180C18070470029818902D041F40051B5
:1037900001E021F400518181704710B5C1F342135B
:1037A00001F01F040121A140012B07D0022B07D0FB
:1037B0001430002A026805D00A4304E00C30F8E710
:1037C0001030F6E78A43026010BD002A828A01D0D9
:1037D0000A4300E08A4382827047028A22F00F0285
:1037E0000282028A0A4302827047828922F40062BE
:1037F000828182890A43828170470029818902D0AF
:1038000041F0020101E021F0020181817047028A4A
:1038100022F020020282028A0A43028270470029B3
:10382000018A02D041F4804101E021F4804101820B
:103830007047C1F30801818070478088C0F3080099
:103840007047818941F0010181817047028BD2B2BA
:103850000283028B42EA012101837047028B02F44A
:103860007F420283028B0A43028370470029818AC8
:1038700002D041F0200101E021F020018182704757
:103880000029818A02D041F0100101E021F01001ED
:10389000818270470029818A02D041F0080101E04D
:1038A00021F00801818270470029818902D041F40A
:1038B000004101E0C1F30E01818170470029818A36
:1038C00002D041F4006101E021F40061818270477F
:1038D000828A22F004028282828A0A4382827047AC
:1038E0000029818A02D041F0020101E021F00201A9
:1038F000818270470246002012880A4200D00120CF
:103900007047C9430180704770B501F01F0501265B
:103910000024C1F3421306FA05F2012B0FD0022B4B
:103920000FD0838A4FEA11210088134206FA01F66C
:1039300000EA060001D000B10124204670BD838951
:10394000F0E7038AEEE70A0A01219140C9430180AA
:10395000704700000038014000440040004800402B
:10396000004C004000500040F94910B5884202D197
:103970000121C41486E0B0F1804F09D0F549884296
:103980000DD101210220FFF727FE0021022064E073
:1039900001210846FFF720FE002101205DE0EE49ED
:1039A000884206D101210420FFF716FE00210420E1
:1039B00053E0EA49884206D101210820FFF70CFEB6
:1039C0000021082049E0E649884206D10121102063
:1039D000FFF702FE002110203FE0E249884206D1B5
:1039E00001212020FFF7F8FD0021202035E0DE49ED
:1039F000884202D10121441444E0DC49884202D1CA
:103A00000121CC043EE0DA49884202D101210C05B3
:103A100038E0D849884202D101214C0532E0D6492C
:103A2000884206D101214020FFF7D6FD0021402029
:103A300013E0D249884206D101218020FFF7CCFD56
:103A40000021802009E0CE4988420AD18415012155
:103A50002046FFF7C1FD00212046BDE81040FFF7DA
:103A6000BBBDC849884202D101210C040AE0C64905
:103A7000884202D101214C0404E0C44988420AD1A1
:103A800001218C042046FFF79EFD2046BDE8104032
:103A90000021FFF798BD10BD30B50288AC4CB24D87
:103AA000A0420DD0A8420BD0B0F1804F08D0A94B56
:103AB000984205D0A84B984202D0A84B984203D117
:103AC00022F070034A881A43A54B984206D0A54BB2
:103AD000984203D022F44073CA881A4302808A882D
:103AE00082850A880285A0420AD0A84208D0A54A49
:103AF000904205D0A44A904202D0A44A904201D1FB
:103B0000097A01860121818230BD30B5028C22F014
:103B100001020284028C8388048B22F0020224F0CA
:103B200073050C882C430D8915434A882A43884D18
:103B3000A8420BD08C4DA84208D0924DA84205D087
:103B4000914DA84202D0914DA8420DD122F0080516
:103B50004A8923F440732A4322F004058A882A43C1
:103B60008D891D43CB892B4383800483C98881863B
:103B7000028430BD70B5028C22F010020284028CE7
:103B80008388048B0D8824F4E6464FF6FF7404EA1C
:103B9000052535430E8922F0200204EA0616164355
:103BA0004A8804EA02123243694EB04202D06E4E95
:103BB000B04215D122F080064A8923F4406304EA1A
:103BC0000212324322F040068A8804EA021232438B
:103BD0008E8904EA86061E43CB8904EA83033343B5
:103BE00083800583C9880187028470BD70B5028C0B
:103BF00022F480720284028C8388848B0D8824F0E6
:103C0000730425430E894FF6FF7422F4007204EA10
:103C1000062616434A8804EA022232434C4EB0423A
:103C200002D0514EB04215D122F400664A8923F4E5
:103C3000405304EA0222324322F480668A8804EA6E
:103C4000022232438E8904EA06161E43CB8904EA17
:103C50000313334383808583C9888187028470BDC1
:103C600070B5028C22F480520284058C8288838B8A
:103C70000C8823F4E6464FF6FF7303EA042434432A
:103C800025F400560D8903EA053535434E8803EACD
:103C900006362E432E4DA84202D0334DA84205D100
:103CA00022F480458A8903EA82122A43828084832F
:103CB000C988A0F84010068470BD828B22F440624F
:103CC0008283828B4FF6FF7303EA01210A438283CA
:103CD0007047828B22F00C028283828B0A4382839C
:103CE0007047028B22F440620283028B4FF6FF730F
:103CF00003EA01210A4302837047F0B5048C24F0E3
:103D000010040484078B048C4FF6FF7527F4734767
:103D100005EA03333B4305EA02221A430C4B05EA4A
:103D2000011698420ED0104B98420BD0B0F1804F44
:103D300008D0084B984205D0074B984202D0074B59
:103D4000984225D124F02001314341F0100124E0B4
:103D5000002C01400004004000080040000C00401E
:103D6000001000400014004000340140004C0140AD
:103D7000005001400054014000180040001C004069
:103D80000020004000400140004401400048014044
:103D900024F0A0030B4343F0100102830184F0BD23
:103DA000028B22F00C020283028B0A4302837047CB
:103DB00070B5048C24F001040484058B048C4FF648
:103DC000FF7606EA0313134325F0F305F84A2B4365
:103DD00090420ED0F74A90420BD0B0F1804F08D0FD
:103DE000F54A904205D0F54A904202D0F44A9042FA
:103DF00002D124F0020201E024F00A020A4342F058
:103E000001010383018470BD2DE9F84F0D4604467E
:103E10000888E74FDFF89CC3DFF89C83DFF89C93AA
:103E20004988AA882B894FF0804A48B304282FD0AC
:103E30004FF6FF760828934632D0208C9E4620F419
:103E400080502084A38B208C06EA0132009223F458
:103E5000734306EA0B221A4306EA0E331343BC42AD
:103E60000AD0644508D0544506D0444504D04C459A
:103E700002D0D34A944242D120F40050009940E04D
:103E80002046FFF795FFE9882046BDE8F84F87E711
:103E90002046FFF732FFE9882046BDE8F84F20E7CB
:103EA000208C20F480702084B4F81CE0208C06EA7A
:103EB000031306EA01222EF0F30E43EA0B0343EA52
:103EC0000E030092BC420AD0644508D0544506D087
:103ED000444504D04C4502D0B94A944203D120F461
:103EE0000070009901E020F42060084340F48070E5
:103EF000A3832084E9882046BDE8F84FE9E620F452
:103F00000240084340F48050A3832084E98820467F
:103F1000BDE8F84FD1E62DE9F0410C46002649886E
:103F20000746012501B90226A288012A00D10225EF
:103F3000208823890028384610D0FFF7DEFEE1886C
:103F40003846FFF7CEFE23892A4631463846FFF72A
:103F50002FFFE1883846BDE8F04121E7FFF728FF51
:103F6000E1883846FFF71CFF23892A463146384648
:103F7000FFF7C3FEE1883846BDE8F041B1E610B571
:103F80000A884B88CC881A438B8823431A430B89B1
:103F90001A434B8989891A430A43A0F8442010BD6B
:103FA0004FF6FF71818000210180C1804180017244
:103FB00070470021018041808180C1800181418161
:103FC0008181C1817047002101804180012282806E
:103FD000C180018170470021018041808180C180C2
:103FE00001814181818170470029018802D041F01F
:103FF000010101E021F0010101807047002930F842
:10400000441F02D041F4004101E0C1F30E010180E0
:104010007047002A828901D00A4300E08A438281E6
:104020007047818270471143A0F848107047002AFA
:10403000828901D00A4300E08A4382817047018966
:1040400021F0070101817047028922F070020A43C2
:104050000281704700B50346FFF7F6FF188940F06C
:104060000700188100BD70B516460D46602904464C
:104070004FF0010231460AD0FFF79AFE294620464A
:10408000FFF7E2FF208940F00700208170BDFFF7B5
:1040900034FEF3E730B504894FF6FF7505EA0323D4
:1040A0001343E4B20B432343038130BD10B50446F0
:1040B000FFF7F0FF208940F07700208110BD10B598
:1040C0000446FFF7E7FF208940F48040208110BDBF
:1040D000018582827047028822F070020A430280C2
:1040E000704770B50589048B068C25F007050D43D4
:1040F0004FF6FC410C4040F201110C434FF6FF71AA
:1041000001EA031126F0220611433143058104839D
:10411000018470BD028B22F070020A430283704753
:10412000028B4FF6FF7322F4E04203EA01211143B0
:1041300001837047828B22F070020A4382837047AA
:10414000828B4FF6FF7322F4E04203EA0121114310
:10415000818370470029018802D041F0800101E08D
:1041600021F08001018070470029818802D041F050
:10417000040101E021F00401818070470029818859
:1041800002D041F0080101E021F008018180704770
:104190000029818802D041F0010101E021F00101F4
:1041A00081807047028B22F008020A430283704725
:1041B000002C014000340140000400400008004091
:1041C000000C0040028B4FF6FF7322F4006203EAFA
:1041D000012111430183EAE7828B22F008020A439E
:1041E0008283E4E7828B4FF6FF7322F4006203EAD6
:1041F000012111438183DAE7028B22F004020A4392
:104200000283D4E7028B4FF6FF7322F4806203EA45
:10421000012111430183CAE7828B22F004020A4381
:104220008283C4E7828B4FF6FF7322F4806203EA35
:10423000012111438183BAE7028B22F080020A43F5
:104240000283B4E7028B4FF6FF73C2F30E0203EA58
:10425000012111430183AAE7828B22F080020A43E5
:104260008283A4E7828B4FF6FF73C2F30E0203EA48
:104270000121114381839AE7028C22F002020A4352
:10428000028494E7028C22F008020A4302848EE73B
:10429000028C4FF6FF7322F0200203EA0111114352
:1042A000018484E7028C4FF6FF7322F0800203EA58
:1042B0000111114301847AE7028C4FF6FF7322F457
:1042C000007203EA01211143018470E7028C4FF66A
:1042D000FF7322F4006203EA01211143018466E7BF
:1042E000028C4FF6FF7322F4005203EA01311143AE
:1042F00001845CE710B50123048C8B409C4304844B
:10430000038C8A401343038410BD10B50423048C2E
:104310008B409C430484038C8A401343038410BD68
:1043200030B50124058C00F118038C40A5430584A9
:1043300089B108290FD0091FC1F34E001844016844
:1043400021F4E041016001684FF6FF7303EA0222A5
:104350001143016030BD03EB5100016821F0700191
:1043600001600168F4E70029018802D041F00201F0
:1043700001E021F00201018019E70029018802D043
:1043800041F0040101E021F0040101800FE7002960
:10439000818802D041F0800101E021F0800181801C
:1043A00005E7028822F00802028002880A430280A0
:1043B000FDE6828822F07002828082880A43828031
:1043C000F5E6028922F00702028102890A4302818E
:1043D000EDE6028922F08002028102890A4302810D
:1043E000E5E68184E3E68185E1E68186DFE6018713
:1043F000DDE68187DBE6A0F84010D8E6028822F4EB
:104400004072028002880A430280D0E6808ECEE6A7
:10441000008FCCE6808FCAE6B0F84000C7E6808CFB
:10442000C5E6008DC3E602460020128A0A4200D08B
:104430000120BCE6C9430182B9E602460020138A86
:1044400092890B4202EA010202D0002A00D0012028
:10445000ADE6C9430182AAE6C54910B5884202D13A
:10446000012144150AE0C349884202D10121041503
:1044700004E0C14988420AD10121CC032046FFF75C
:10448000A2F82046BDE810400021FFF79CB810BDFF
:1044900010B54268B94B0C791A400B6842EA042205
:1044A000134343608268B64B1A40D1E90243234369
:1044B0004C7942EA440213438360C26A097C22F4C5
:1044C0007002491EC9B242EA0151C16210BD002109
:1044D0000160017141718160C16001210174704707
:1044E0000029816802D041F0010101E021F00101C1
:1044F000816070470029816802D041F4807101E039
:1045000021F4807181607047002A4268C9B201D0ED
:104510000A4300E08A4342607047816841F0080125
:1045200081607047014600208968090700D5012095
:104530007047816841F004018160704701460020A6
:104540008968490700D5012070470029816802D099
:1045500041F4A00101E021F4A0018160704701460F
:1045600000208968490200D5012070474268491E31
:1045700022F4604242EA41314160704700294168BB
:1045800002D041F4006101E021F400614160704714
:1045900070B5072609290AD9C568A1F10A0404EBF8
:1045A0004404A640B543A3401D43C56007E0056928
:1045B00001EB4104A640B543A3401D4305611F2301
:1045C000072A09D2446B521E02EB820293409C439D
:1045D00091400C43446370BD0D2A09D2046BD21F75
:1045E00002EB820293409C4391400C43046370BDF4
:1045F000C46A0D3A02EB820293409C4391400C4303
:10460000C46270BD0029816802D041F4801101E0CC
:1046100021F4801181607047C06C80B270475448AB
:104620004C30006870470029416802D041F4806135
:1046300001E021F48061416070470029416802D0A7
:1046400041F4805101E021F480514160704782685B
:1046500022F4E0420A43826070470029816802D058
:1046600041F4004101E021F40041816070470029DC
:10467000816802D041F4021101E021F4021181604D
:104680007047014600208968890200D501207047E3
:1046900070B5072609290AD9C568A1F10A0404EBF7
:1046A0004404A640B543A3401D43C56007E0056927
:1046B00001EB4104A640B543A3401D430561836B54
:1046C000C3F30154121B921C02EB82021F2494407C
:1046D000A34391400B43836370BD826B491E22F458
:1046E000401242EA01518163704708B508440090C6
:1046F000026008BD08B5084428300090006880B208
:1047000008BD42681F4B1A400A434260704741622D
:1047100082627047426822F01F020A43426070477B
:10472000134908310028086802D040F4000001E075
:1047300020F40000086070470246002012680A4218
:1047400000D001207047C9430160704710B5024690
:10475000002054680B0AC9B20C401168194202D0FB
:10476000002C00D0012010BD6FEA112101607047BC
:104770000024014000280140003C0140FFFEF0FF02
:10478000FDF7F1FFFFFD3FFFFE4910B588424FF0F6
:10479000010101D14C0601E04FF080642046FEF794
:1047A0001BFF2046BDE810400021FEF715BF10B5E5
:1047B0000368002223F002030360036843F001034F
:1047C00003604FF6FF7300E0521C4468E40701D118
:1047D0009A42F9D14268D2073ED08A79012A02680A
:1047E0003CD022F080020260CA79012A026838D0E7
:1047F00022F0400202600A7A012A026834D022F0D4
:10480000200202604A7A012A026830D022F01002A7
:1048100002608A7A012A02682CD022F00802026023
:10482000CA7A012A026828D022F0040202608A783B
:10483000CC78920742EA04620C7942EA04424C794D
:10484000098842EA0452491E0A43C261016821F004
:1048500001010160002114E0002010BD42F080023F
:10486000C1E742F04002C5E742F02002C9E742F04A
:104870001002CDE742F00802D1E742F00402D5E78A
:10488000491C4268D20701D09942F9D14068C0075B
:10489000E2D1012010BDF0B5827ABB4D01219140DB
:1048A0002A6842F001022A60B74E1C3632688A43F9
:1048B0003260B54A047BB54B0C32A4B914688C4302
:1048C00014604488C78844EA0744877A03EBC70723
:1048D000C7F840460488878844EA0744877A03EB90
:1048E000C707C7F84446047B012C12D114680C4357
:1048F0001460847A026803EBC4044FEA3242C4F8BD
:104900004026847A426803EBC4034FEA3242C3F87C
:1049100044269D4AC37A121D002B136806D00B4310
:104920001360994A0389143213B104E08B43F7E70B
:1049300013688B4313600389012B02D113680B4367
:104940001360407B012802D130680843306028683A
:1049500020F001002860F0BD00218171C171017259
:1049600041728172C1728170C17003210171022193
:10497000417101210180704783490A6842F00102B8
:104980000A600A6843F60E739A430A600A6842EAAC
:1049900000200860086820F00100086070470029C6
:1049A000016802D041F4803101E021F480310160DE
:1049B00070470029016813D041F080010160D0F8F0
:1049C000841141F48071C0F88411D0F8941141F43D
:1049D0008071C0F89411D0F8A41141F4807112E0F4
:1049E00021F080010160D0F8841121F48071C0F8B9
:1049F0008411D0F8941121F48071C0F89411D0F88A
:104A0000A41121F48071C0F8A411704730B502469A
:104A1000002093685B0108D49068000101D5012053
:104A200003E09068C00037D5022002EB0012D2F8F4
:104A3000803103F00103C2F880310B7A73B3D2F8EE
:104A400080414D681C434B7A43EAC5031C43C2F8BE
:104A500080418B7A03F00F038B72D2F8843123F0FC
:104A60000F03C2F88431D2F884318C7A2343C2F820
:104A70008431CB7ACC6843EA0423C2F88831CB7BFB
:104A8000096943EA0121C2F88C11D2F8801141F082
:104A90000101C2F8801130BD042030BDD2F8803150
:104AA0004C7A23430C8843EA4453C2F88031D0E760
:104AB000002221B1012905D0022906D112E0826825
:104AC000334801E08268334802403349501A8A4231
:104AD00014D00ADCA2B16FF0806010180FD0022849
:104AE0000CD10FE082682D48EEE7B0F5007F09D0C9
:104AF0002B49401803D0B0F5003F03D00020704789
:104B0000022070470120704741B101290AD00229D3
:104B100003D1816841F4000181607047816841F0F0
:104B20008001F9E7816841F40041F5E710B500EB39
:104B30000113D3F8B04114F004041472D3F8B04157
:104B400045D0E4085460D3F8B04104F00204547234
:104B5000D3F8B44104F00F049472D3F8B441240A9A
:104B6000D474D3F8B841D472D3F8B841240A14737A
:104B7000D3F8B841240C5473D3F8B841240E94737D
:104B800010E000000064004000660040006000404B
:104B900003000004000300080001000800000310E7
:104BA0000001FFF7D3F8BC41D473D3F8BC41240A09
:104BB0001474D3F8BC41240C5474D3F8BC311B0ECC
:104BC000937439B1016941F02001016110BD640D98
:104BD0001460B8E7C16841F02001C16010BD21B187
:104BE000016941F0200101617047C16841F0200175
:104BF000C16070470246002029B1012902D1106925
:104C000000F003007047D068FAE700234FF6FF7208
:104C100021B1012917D0022924D03AE0016821F0FE
:104C2000020141F00101016000E0521E416801F003
:104C30000301012901D0002AF7D1406800F00300E8
:104C4000012823D124E0016821F00301016000E084
:104C5000521E4168890701D0002AF9D140688007B7
:104C600014D115E0016821F0010141F00201016059
:104C700000E0521E416801F00301022901D0002A20
:104C8000F7D1406800F00300022801D0002300E0C3
:104C90000123184670470268002122F0010242F009
:104CA00002020260406800F00300022800D10121E6
:104CB0000846704702684FF6FF71002322F0020297
:104CC000026000E0491E4268920701D50029F9D12F
:104CD0004068800700D40123184670478069C0F3FC
:104CE0000210000170478069000E70478069C0F3B0
:104CF00007407047002A426901D00A4300E08A4316
:104D0000426170470246002011F4700F03D092698F
:104D100004E001207047CB0104D552680A4011031A
:104D2000F7D170470B0101D59268F7E78B0101D5E8
:104D3000D268F3E71269F1E7534A914202D10021A8
:104D400081617047C1F313028B0101D5C2607047C6
:104D50004B0101D502617047090101D5826070479E
:104D6000426070470246002053690B424AD0B1F5B9
:104D7000807F3BD013DC08292ED007DC012926D008
:104D8000022927D004293DD1D0682BE0102925D055
:104D9000202926D0402935D11069102130E0B1F505
:104DA000004F2BD00BDCB1F5007F22D0B1F5806F26
:104DB00022D0B1F5006F25D19069702120E0B1F5C6
:104DC000803F11D0B1F5003F1CD15068E5E79068F5
:104DD0002E4915E0D06802E0D068DEE710690321B3
:104DE0000EE0106908210BE05068FBE79069012193
:104DF00006E09069022103E0906900E05068042118
:104E000000F03BB8704730B5082310240422B1F5F8
:104E1000007F1DD010DC202929D007DC012921D0FA
:104E2000042922D0082900D1C46030BD402920D0F7
:104E3000B1F5807FF9D10BE00025B1F5004F06D028
:104E400008DCB1F5806F03D0B1F5006FEDD185615D
:104E5000426030BDB1F5803F0DD0B1F5003FF8D1D3
:104E6000446030BD0949816030BDC36030BD03611D
:104E700030BD046130BD436030BD024600200A42AF
:104E800000D00120704700007000F03001010100E7
:104E900010B50120FEF7A9FBBDE810400020FEF789
:104EA000A4BB1F49086070471D49091F086070476F
:104EB0001B498431086070471A4A118821F46071D7
:104EC000014311807047174A118821F07F01014387
:104ED00011807047134A08B52C3A104400900160C5
:104EE00008BD104908B52C3908440090008808BD59
:104EF0000B489C300068C0B270470A4808300188EF
:104F000041F00101018070470548A0300068C0B23F
:104F1000704704480830018841F002010180704761
:104F200004860D422C6C004010B501210C07204670
:104F3000FEF752FB2046BDE810400021FEF74CBBB7
:104F40002149086270472049086170471F4A11686B
:104F500021F0E0010143116070471B49C1F8A00036
:104F600070471A4B1A6822F0030202431A6018486D
:104F7000026842F004020260012905D020BF0168E6
:104F800021F004010160704730BFF8E70F48016865
:104F900041F004010160016841F0020101600C4828
:104FA000016841F00401016030BF7047074A0146C3
:104FB000002052680A4200D00120704703490A6865
:104FC00042EA80000860704700000E420070004016
:104FD00010ED00E000F108014FF0FF32C0E90112CE
:104FE000C1600161002101607047002101617047CB
:104FF00042684A6093688B60936859609160086169
:105000000168491C0160704730B50C68621C02D011
:1050100000F1080202E0026904E01A4653681D68C4
:10502000A542FAD953684B6099608A605160086163
:105030000168491C016030BDD0E9013201699A6004
:10504000D0E901235A604A68824201D182684A60ED
:10505000002202610868401E0860704770B50D4666
:10506000040005D140F21B12F2A1F7A006F010F8DF
:1050700002F0ECF9D4E90F20216802FB0011616015
:105080000021A1632168A1600A46D4E90F01401EF6
:1050900000FB0121E16021464FF0FF3001F8440F91
:1050A000487004F110004DB1FFF794FF04F12400A3
:1050B000FFF790FF02F0E4F9012070BD216900299B
:1050C000F8D001F0A3FA0028F4D0E3494FF0805063
:1050D0000860BFF34F8FBFF36F8FEBE72DE9F0410F
:1050E00017460E46050005D14FF4C472D1A1D6A0D3
:1050F00005F0CEFFBEB105FB06F0543002F056FAC3
:1051000004000ED004F154007EB12060C4E90F56B3
:1051100020460121FFF7A2FF84F8507000212046AD
:10512000A164BDE8F0810020E7E72460EEE72DE907
:10513000F041856B174604460026026C82B1C7B168
:10514000E06806F0A2F8E168206C091AE1602268C4
:10515000914202D26168081AE060022F16D017E06F
:105160002068A8B9606801F062FB06460020606014
:105170000EE0A06806F089F8216CA0680844A060E1
:105180006168884204D32068A06001E005B16D1E0B
:105190006D1CA5633046C4E72DE9F3410F46009826
:1051A0000026846C2CB940F6CE12A2A1A6A005F070
:1051B0006FFFA06BE16B884205D340F6CF129DA133
:1051C000A1A005F065FFA06BE16B88420CD294F9B9
:1051D00045503A4669462046FFF7A9FF0646681C37
:1051E00005D06D1C84F845503046BDE8FC81606AEE
:1051F0000028F9D004F1240001F008FA0028F3D0C7
:105200000126F1E72DE9F041044602F01FF994F977
:10521000455004F1240610E0A06C20B10021204686
:10522000FFF7BAFF04E0606A48B1304601F0EEF9DA
:1052300008B101F0A4FA6D1E6DB2002DECDC4FF048
:10524000FF3684F8456002F01BF902F0FFF894F98C
:10525000445004F1100709E0206948B1384601F0D4
:10526000D5F908B101F08BFA6D1E6DB2002DF3DC9B
:1052700084F84460BDE8F04102F002B92DE9FF4F27
:1052800083B099468B4604004FF0000605D140F2EA
:10529000D92268A16CA005F0FBFEBBF1000F07D17D
:1052A000206C28B140F2DA2262A167A005F0F0FE7E
:1052B000B9F1020F08D1E06B012805D040F2DB22E2
:1052C0005CA161A005F0E4FE01F068FA38B9059828
:1052D00028B140F2DE2257A15BA005F0D9FE4FF0C5
:1052E000000A4FF08057DFF8708102F0AFF8A06B32
:1052F000E16B884206D3B9F1020F03D0059800B3E1
:1053000016B325E04A4659462046FFF710FFA16C28
:1053100021B149462046FFF73FFF05E0616A19B118
:1053200004F1240001F072F928B1C8F80070BFF34D
:105330004F8FBFF36F8F02F0A3F8012007B0BDE8D5
:10534000F08F02F09DF821E0684601F0CEF90126C9
:1053500002F096F800F09BFD02F078F894F9440012
:10536000401C01D184F844A094F94500401C01D1AF
:1053700084F845A002F084F805A9684601F0C6F952
:1053800030B12046FFF73EFF00F0F3FC0020D5E7E8
:1053900002F05CF8A06BE16B884201D1012500E0CE
:1053A000002502F06DF895B104F11000059901F0A7
:1053B000D4F82046FFF726FF00F0DBFC002894D14C
:1053C000C8F80070BFF34F8FBFF36F8F8DE7204693
:1053D000FFF718FF00F0CDFC87E710B5024600216B
:1053E0000120FFF77BFE041E07D000214160016011
:1053F0000B460A46C160FFF741FF204610BD10B5BD
:10540000040005D140F241220AA10FA005F040FEA0
:1054100001F0C1F96168884220D1E068401EE06077
:1054200005D100231A4619462046FFF727FF012021
:1054300010BD00002E2E5C4672656552544F535CC1
:1054400071756575652E63004572726F723A2573CA
:105450002C25640D0A00000004ED00E00020E7E7C1
:1054600030B4026C0B46002A0BD0C1681144C160F5
:105470004468A14201D30168C16030BC184605F000
:1054800004BF30BC70472DE9FF4F83B09B468A466E
:1054900004004FF0000607D140F2DC42AFF26C018D
:1054A000AFF25C0005F0F4FDBAF1000F09D1206CF9
:1054B00038B140F2DD42AFF28401AFF2740005F082
:1054C000E7FD01F06BF948B9059838B14FF49C62DB
:1054D000AFF2A001AFF2900005F0DAFD4FF0000945
:1054E0004FF08057DFF8188601F0B0FFA56B35B399
:1054F00051462046E668FFF7B3FFBBF1000F11D01D
:10550000E660606A50B104F1240001F07FF828B130
:10551000C8F80070BFF34F8FBFF36F8F01F0B0FF7B
:1055200001200BE76D1EA563206810B901F02FFA6A
:10553000606020690028F1D004F11000E5E70598CB
:1055400008B11EB106E001F09BFF27E0684601F0BC
:10555000CCF8012601F094FF00F099FC01F076FFF1
:1055600094F94400401C01D184F8449094F945001A
:10557000401C01D184F8459001F082FF05A96846DE
:1055800001F0C4F8002820460AD0FFF73BFE00F0E7
:10559000F0FB204600F0A6FA0028A5D00020CDE6BA
:1055A00000F0A0FAD8B1206830B901F04FFF606870
:1055B00001F0FFF801F064FF04F12400059900F008
:1055C000CCFF2046FFF71EFE00F0D3FB00288BD156
:1055D000C8F80070BFF34F8FBFF36F8F84E720468A
:1055E000FFF710FE00F0C5FB7EE770B50D46040026
:1055F00007D14FF41E72AFF2C411AFF2B41005F030
:1056000047FD01F0C8F86168884204D1E068401C99
:10561000E060012070BD00232A4619462046FFF7AE
:1056200032FF0028F6D0E168491CE16070BD70B51A
:105630000C46050007D140F2BD22AFF20821AFF2BF
:10564000F81005F025FDAC4207D940F2BE22AFF2BA
:105650001C21AFF20C2005F01BFD02220021284680
:10566000FFF73CFD002800D0846370BD2DE9F047B2
:10567000984615468946040007D140F29F32AFF2A2
:105680004C21AFF23C2005F003FDB9F1000F09D128
:10569000206C38B14FF46872AFF26821AFF2582035
:1056A00005F0F6FCB8F1020F0AD1E06B012807D033
:1056B00040F2A132AFF28421AFF2742005F0E8FC91
:1056C00001F003FF5020EFF3118780F31188BFF33F
:1056D0004F8FBFF36F8FA06BE16B884207D3B8F198
:1056E000020F04D0002087F31188BDE8F08794F9F9
:1056F0004560424649462046FFF719FD701C04D01C
:10570000761C84F845600120EDE7A06C012620B1ED
:1057100041462046FFF740FD06E0606A0028F2D0CF
:1057200004F1240000F072FF0028ECD0002DEAD034
:105730002E60E8E72DE9F0410D46040007D140F264
:105740003C42AFF21031AFF2003005F0A1FC206C0A
:1057500038B14FF48862AFF22431AFF2143005F063
:1057600097FC206848B9606838B140F24542AFF212
:105770003C31AFF22C3005F08BFC01F0A6FE50203E
:10578000EFF3118680F31188BFF34F8FBFF36F8F54
:10579000A16BE06B88421FD994F94500491CA163B5
:1057A000411C04D0401C84F84500012015E0A06C89
:1057B000012720B100212046FFF7EEFC06E0606AD9
:1057C0000028F2D004F1240000F020FF0028ECD0E3
:1057D000002DEAD02F60E8E7002086F31188A0E4CE
:1057E0002DE9F04790468946040007D14FF4B46292
:1057F000AFF2C031AFF2B03005F04AFCB9F1000FA2
:1058000009D1206C38B140F2A152AFF2D831AFF2D9
:10581000C83005F03DFC01F058FE5020EFF3118731
:1058200080F31188BFF34F8FBFF36F8FA66BF6B174
:1058300094F9445049462046FFF712FE761EA663AF
:10584000681C04D06D1C84F84450012010E02069CD
:105850000028FAD004F1100000F0D8FE0028F4D09F
:10586000B8F1000FF1D00121C8F80010EDE70020D9
:1058700087F3118839E72DE9F0410E46040007D17E
:1058800040F2FC52AFF25441AFF2444005F000FC4C
:105890004EB9206C48B140F2FD52AFF26841AFF210
:1058A000584005F0F5FB206C38B940F2FE52AFF2DB
:1058B0007C41AFF26C4005F0EBFB01F006FE50209E
:1058C000EFF3118580F31188BFF34F8FBFF36F8F14
:1058D000A06B30B131462046E768FFF7C1FD0120DB
:1058E000E76085F311881CE410B5040007D140F28D
:1058F0002F62AFF2C041AFF2B04005F0C9FB01F03A
:10590000A5FDA46B01F0BCFD204691E510B5040097
:1059100007D140F24162AFF2E441AFF2D44005F06A
:10592000B7FB01F093FDD4E90E10441A01F0A8FD75
:1059300020467DE510B5040007D140F25162AFF278
:105940000C51AFF2FC4005F0A3FBA06B70E56D4A73
:10595000002102EBC1035B68834206D1002042F8BC
:10596000310002EBC10148607047491C0829F0D39F
:10597000704710B5040007D140F25D62AFF24C51A0
:10598000AFF23C5005F084FB2046FFF7E0FF2046D5
:10599000BDE8104001F075BEC06C7047C16470472F
:1059A00090F85000704710B5040007D140F2937290
:1059B000AFF28051AFF2705005F06AFBA06B08B1F6
:1059C000002035E5012033E510B5040007D140F291
:1059D000BA72AFF2A051AFF2905005F059FBA06B34
:1059E000E16B884201D1012022E5002020E510B5BD
:1059F000444B002253F832401CB1521C082AF9D300
:105A000016E543F8321003EBC201486010E510B50B
:105A100000243C4A214602EBC1035B68834202D169
:105A200052F8314002E0491C0829F4D32046FFE433
:105A300070B515460E46044601F008FD94F9441071
:105A40000020491C01D184F8440094F94510491CF8
:105A500001D184F8450001F013FDA06B28B92A4656
:105A6000314604F1240000F0B6FD2046BDE8704048
:105A7000FFF7C8BB00220421FFF730BB70B50D460D
:105A8000044601F0E3FCA06C08B9A06B08B1002447
:105A900001E0A564012401F0F3FC204670BD10B5BF
:105AA0000446806C884201D1A06B08B10020BFE49D
:105AB00001F0CCFC0020A06401F0E2FC0120B7E47E
:105AC00008B500230A4669460093FFF7DCFC0098FE
:105AD00008BD08B500210A4600916946FFF780FE1F
